:020000040800F2
:100000000050002021040008B5030008BB030008CD
:10001000C1030008C7030008CD030008000000006A
:10002000000000000000000000000000D3030008F2
:10003000DF03000800000000EB030008F7030008DE
:1000400069040008690400086904000869040008DC
:1000500069040008690400086904000869040008CC
:1000600069040008690400086904000869040008BC
:1000700069040008690400086904000869040008AC
:10008000690400086904000869040008690400089C
:10009000690400086904000869040008690400088C
:1000A000690400086904000869040008690400087C
:1000B000690400086904000869040008690400086C
:1000C000690400086904000869040008690400085C
:1000D000690400086904000869040008690400084C
:1000E0000304000869040008690400080000000017
:1000F0000000000000000000000000000000000000
:0C01000000000000000000005FF808F1A3
:10010C0010B5054C237833B9044B13B10448AFF345
:10011C0000800123237010BD0C00002000000000A3
:10012C002013000808B5034B1BB103490348AFF378
:10013C00008008BD00000000100000202013000803
:10014C0080B500AF00F08CF900F024F800F064F8F2
:10015C00012220210D4800F09BFC00224FF400717D
:10016C000B4800F095FC0A2000F0DCF9002220215D
:10017C00064800F08DFC01224FF40071044800F099
:10018C0087FC0A2000F0CEF9E2E700BF000801402E
:10019C000010014080B590B000AF07F11803282281
:1001AC000021184601F0AEF83B1D00221A605A607F
:1001BC009A60DA601A610223BB610123BB621023CF
:1001CC00FB6202237B630023BB634FF46013FB636E
:1001DC0007F11803184600F095FC0346002B01D0DC
:1001EC0000F0AAF80F237B600223BB600023FB60A6
:1001FC004FF480633B6100237B613B1D0221184659
:10020C0000F000FF0346002B01D000F095F800BF72
:10021C004037BD4680BD000080B588B000AF07F107
:10022C00100300221A605A609A60DA603E4B9B6998
:10023C003D4A43F0100393613B4B9B6903F0100361
:10024C00FB60FB68384B9B69374A43F02003936192
:10025C00354B9B6903F02003BB60BB68324B9B6939
:10026C00314A43F0040393612F4B9B6903F0040361
:10027C007B607B682C4B9B692B4A43F00803936192
:10028C00294B9B6903F008033B603B68002220214B
:10029C00264800F0FDFB00224FF40071244800F0CA
:1002AC00F7FB4FF400533B61224B7B610023BB6196
:1002BC0007F1100319461E4800F066FA0C233B6147
:1002CC0002237B610223FB6107F1100319461748D7
:1002DC0000F05AFA20233B6101237B610023BB61B0
:1002EC000223FB6107F110031946104800F04CFA89
:1002FC004FF400733B6101237B610023BB6102233C
:10030C00FB6107F110031946094800F03DFA002281
:10031C000021282000F001FA282000F01AFA00BF72
:10032C002037BD4680BD00BF0010024000080140D0
:10033C00001001400000211080B400AF72B600BF65
:10034C00FEE7000080B485B000AF154B9B69144AE2
:10035C0043F001039361124B9B6903F00103BB60F3
:10036C00BB680F4BDB690E4A43F08053D3610C4BD7
:10037C00DB6903F080537B607B680A4B5B68FB6036
:10038C00FB6823F0E063FB60FB6843F00073FB60E9
:10039C00044AFB68536000BF1437BD4680BC7047ED
:1003AC00001002400000014080B400AFFEE780B4B2
:1003BC0000AFFEE780B400AFFEE780B400AFFEE70D
:1003CC0080B400AFFEE780B400AF00BFBD4680BC78
:1003DC00704780B400AF00BFBD4680BC704780B48E
:1003EC0000AF00BFBD4680BC704780B500AF00F0C9
:1003FC007DF800BF80BD80B500AF4FF4005000F019
:10040C005FFB00BF80BD80B400AF00BFBD4680BCA9
:10041C0070470000FFF7F7FF0B480C490C4A00230C
:10042C0002E0D458C4500433C4188C42F9D3094A9E
:10043C00094C002301E013600432A242FBD300F00C
:10044C003DFFFFF77DFE7047000000200C000020F0
:10045C00641300080C0000202C000020FEE70000B4
:10046C0080B500AF084B1B68074A43F010031360BC
:10047C00032000F047F9002000F008F8FFF762FFB6
:10048C000023184680BD00BF0020024080B582B01A
:10049C0000AF7860124B1A68124B1B7819464FF458
:1004AC007A73B3FBF1F3B2FBF3F3184600F05FF988
:1004BC000346002B01D001230EE07B680F2B0AD8DA
:1004CC00002279684FF0FF3000F027F9064A7B686C
:1004DC001360002300E0012318460837BD4680BD99
:1004EC0000000020080000200400002080B400AFB1
:1004FC00054B1B781A46054B1B681344034A1360C3
:10050C0000BFBD4680BC70470800002028000020BA
:10051C0080B400AF024B1B681846BD4680BC7047C8
:10052C002800002080B584B000AF7860FFF7F0FFA2
:10053C00B8607B68FB60FB68B3F1FF3F05D00A4BEA
:10054C001B781A46FB681344FB6000BFFFF7E0FF03
:10055C000246BB68D31AFA689A42F7D800BF00BFAC
:10056C001037BD4680BD00BF0800002080B485B0A8
:10057C0000AF78607B6803F00703FB600C4BDB6813
:10058C00BB60BA684FF6FF031340BB60FB681A02EE
:10059C00BB68134343F0BF6343F40033BB60044AAE
:1005AC00BB68D36000BF1437BD4680BC704700BF2A
:1005BC0000ED00E080B400AF044BDB681B0A03F0D5
:1005CC0007031846BD4680BC704700BF00ED00E035
:1005DC0080B483B000AF0346FB7197F90730002B52
:1005EC000BDBFB7903F01F02064997F907305B0917
:1005FC00012000FA02F241F8232000BF0C37BD465F
:10060C0080BC704700E100E080B483B000AF0346CB
:10061C003960FB7197F90730002B0ADB3B68DAB2C3
:10062C000C4997F907301201D2B20B4483F800231E
:10063C000AE03B68DAB20849FB7903F00F03043B8C
:10064C001201D2B20B441A7600BF0C37BD4680BCE7
:10065C00704700BF00E100E000ED00E080B489B01D
:10066C0000AFF860B9607A60FB6803F00703FB61C8
:10067C00FB69C3F10703042B28BF0423BB61FB698F
:10068C000433062B02D9FB69033B00E000237B619A
:10069C004FF0FF32BB6902FA03F3DA43BB681A402E
:1006AC007B699A404FF0FF317B6901FA03F3D94320
:1006BC007B680B40134318462437BD4680BC7047FB
:1006CC0080B582B000AF78607B68013BB3F1807F6E
:1006DC0001D301230FE00A4A7B68013B53600F21D1
:1006EC004FF0FF30FFF790FF054B00229A60044B50
:1006FC0007221A60002318460837BD4680BD00BF8C
:10070C0010E000E080B582B000AF78607868FFF749
:10071C002DFF00BF0837BD4680BD80B586B000AF49
:10072C000346B9607A60FB7300237B61FFF742FFDD
:10073C0078617A68B9687869FFF790FF024697F993
:10074C000F3011461846FFF75FFF00BF1837BD4644
:10075C0080BD80B582B000AF0346FB7197F90730BE
:10076C001846FFF735FF00BF0837BD4680BD80B582
:10077C0082B000AF78607868FFF7A2FF0346184696
:10078C000837BD4680BD000080B48BB000AF7860E8
:10079C00396000237B6200233B6269E101227B6AA2
:1007AC0002FA03F3FB613B681B68FA691340BB61F7
:1007BC00BA69FB699A4240F058813B685B689A4A77
:1007CC0093425ED0984A934275D8984A934258D037
:1007DC00964A93426FD8964A934252D0944A934287
:1007EC0069D8944A93424CD0924A934263D8924A25
:1007FC00934246D0904A93425DD8122B2AD8122BA2
:10080C0059D801A252F823F08F0800086908000893
:10081C007B080008BD080008C3080008C3080008CE
:10082C00C3080008C3080008C3080008C308000870
:10083C00C3080008C3080008C3080008C308000860
:10084C00C3080008C3080008C308000871080008A2
:10085C0085080008794A934213D02CE03B68DB688A
:10086C003B6229E03B68DB6804333B6224E03B6875
:10087C00DB6808333B621FE03B68DB680C333B6290
:10088C001AE03B689B68002B02D104233B6213E007
:10089C003B689B68012B05D108233B627B68FA6996
:1008AC001A6109E008233B627B68FA695A6103E02C
:1008BC0000233B6200E000BFBB69FF2B01D87B68C3
:1008CC0001E07B6804337B61BB69FF2B02D87B6A38
:1008DC009B0002E07B6A083B9B003B617B691A68CA
:1008EC000F213B6901FA03F3DB431A40396A3B6978
:1008FC0001FA03F31A437B691A603B685B6803F0E7
:10090C008053002B00F0B1804D4B9B694C4A43F057
:10091C00010393614A4B9B6903F00103BB60BB6805
:10092C00484A7B6A9B08023352F82330FB607B6A8F
:10093C0003F003039B000F2202FA03F3DB43FA6874
:10094C001340FB607B68404A934213D07B683F4A5C
:10095C0093420DD07B683E4A934207D07B683D4A58
:10096C00934201D1032306E0042304E0022302E0B6
:10097C00012300E000237A6A02F003029200934004
:10098C00FA681343FB602F497B6A9B080233FA68B1
:10099C0041F823203B685B6803F48013002B06D0DE
:1009AC002D4B9A682C49BB6913438B6006E02A4B8C
:1009BC009A68BB69DB43284913408B603B685B68D2
:1009CC0003F40013002B06D0234BDA682249BB69D1
:1009DC001343CB6006E0204BDA68BB69DB431E494E
:1009EC001340CB603B685B6803F40033002B06D0EC
:1009FC00194B5A681849BB6913434B6006E0164BF8
:100A0C005A68BB69DB43144913404B603B685B6815
:100A1C0003F48033002B21D00F4B1A680E49BB69AD
:100A2C0013430B6021E000BF0000321000003110B6
:100A3C000000221000002110000012100000111004
:100A4C00001002400000014000080140000C014071
:100A5C000010014000140140000401400B4B1A68C7
:100A6C00BB69DB43094913400B607B6A01337B6232
:100A7C003B681A687B6A22FA03F3002B7FF48EAE74
:100A8C0000BF00BF2C37BD4680BC7047000401403E
:100A9C0080B483B000AF78600B467B8013467B70CC
:100AAC007B78002B03D07A887B681A6103E07B8803
:100ABC001A047B681A6100BF0C37BD4680BC7047B6
:100ACC0080B582B000AF0346FB80084B5A69FB88A7
:100ADC001340002B06D0054AFB885361FB8818464F
:100AEC0000F006F800BF0837BD4680BD0004014089
:100AFC0080B483B000AF0346FB8000BF0C37BD460B
:100B0C0080BC704780B586B000AF78607B68002BE6
:100B1C0001D101236CE27B681B6803F00103002BFD
:100B2C0000F08780924B5B6803F00C03042B0CD015
:100B3C008F4B5B6803F00C03082B12D18C4B5B685A
:100B4C0003F48033B3F5803F0BD1894B1B6803F45E
:100B5C000033002B6CD07B685B68002B68D10123C1
:100B6C0046E27B685B68B3F5803F06D1804B1B681F
:100B7C007F4A43F4803313602EE07B685B68002B64
:100B8C000CD17B4B1B687A4A23F480331360784B6F
:100B9C001B68774A23F4802313601DE07B685B6835
:100BAC00B3F5A02F0CD1724B1B68714A43F4802310
:100BBC0013606F4B1B686E4A43F4803313600BE079
:100BCC006B4B1B686A4A23F480331360684B1B68B9
:100BDC00674A23F4802313607B685B68002B13D077
:100BEC00FFF796FC386108E0FFF792FC02463B6980
:100BFC00D31A642B01D90323FAE15D4B1B6803F470
:100C0C000033002BF0D014E0FFF782FC386108E0D1
:100C1C00FFF77EFC02463B69D31A642B01D90323F0
:100C2C00E6E1534B1B6803F40033002BF0D100E0DA
:100C3C0000BF7B681B6803F00203002B63D04C4B96
:100C4C005B6803F00C03002B0BD0494B5B6803F083
:100C5C000C03082B1CD1464B5B6803F48033002B30
:100C6C0016D1434B1B6803F00203002B05D07B68A5
:100C7C001B69012B01D00123BAE13D4B1B6823F00A
:100C8C00F8027B685B69DB00394913430B603AE07F
:100C9C007B681B69002B20D0364B01221A60FFF7B2
:100CAC0037FC386108E0FFF733FC02463B69D31A86
:100CBC00022B01D903239BE12D4B1B6803F002038C
:100CCC00002BF0D02A4B1B6823F0F8027B685B6981
:100CDC00DB00274913430B6015E0264B00221A60FA
:100CEC00FFF716FC386108E0FFF712FC02463B697F
:100CFC00D31A022B01D903237AE11D4B1B6803F095
:100D0C000203002BF0D17B681B6803F00803002B57
:100D1C003AD07B689B69002B19D0174B01221A60C3
:100D2C00FFF7F6FB386108E0FFF7F2FB02463B6980
:100D3C00D31A022B01D903235AE10D4B5B6A03F042
:100D4C000203002BF0D0012000F09AFA1CE00A4BB1
:100D5C0000221A60FFF7DCFB38610FE0FFF7D8FBCD
:100D6C0002463B69D31A022B08D9032340E100BF8A
:100D7C000010024000004242800442429E4B5B6ADB
:100D8C0003F00203002BE9D17B681B6803F004031A
:100D9C00002B00F0A6800023FB75974BDB6903F05A
:100DAC008053002B0DD1944BDB69934A43F0805355
:100DBC00D361914BDB6903F08053BB60BB680123AB
:100DCC00FB758E4B1B6803F48073002B18D18B4B77
:100DDC001B688A4A43F480731360FFF799FB3861F0
:100DEC0008E0FFF795FB02463B69D31A642B01D947
:100DFC000323FDE0814B1B6803F48073002BF0D0C0
:100E0C007B68DB68012B06D17B4B1B6A7A4A43F06B
:100E1C00010313622DE07B68DB68002B0CD1764B51
:100E2C001B6A754A23F001031362734B1B6A724AE7
:100E3C0023F0040313621CE07B68DB68052B0CD1E8
:100E4C006D4B1B6A6C4A43F0040313626A4B1B6ABA
:100E5C00694A43F0010313620BE0674B1B6A664A55
:100E6C0023F001031362644B1B6A634A23F00403EF
:100E7C0013627B68DB68002B15D0FFF749FB3861E8
:100E8C000AE0FFF745FB02463B69D31A41F2883270
:100E9C00934201D90323ABE0574B1B6A03F00203C7
:100EAC00002BEED014E0FFF733FB38610AE0FFF7BC
:100EBC002FFB02463B69D31A41F28832934201D987
:100ECC00032395E04C4B1B6A03F00203002BEED17D
:100EDC00FB7D012B05D1484BDB69474A23F080533E
:100EEC00D3617B68DB69002B00F08180424B5B682F
:100EFC0003F00C03082B61D07B68DB69022B46D115
:100F0C003F4B00221A60FFF703FB386108E0FFF744
:100F1C00FFFA02463B69D31A022B01D9032367E07F
:100F2C00354B1B6803F00073002BF0D17B681B6AF8
:100F3C00B3F5803F08D1304B5B6823F400327B68FB
:100F4C009B682D4913434B602B4B5B6823F4741245
:100F5C007B68196A7B685B6A0B43274913434B60B8
:100F6C00274B01221A60FFF7D3FA386108E0FFF72C
:100F7C00CFFA02463B69D31A022B01D9032337E07F
:100F8C001D4B1B6803F00073002BF0D02FE01C4BA3
:100F9C0000221A60FFF7BCFA386108E0FFF7B8FAD4
:100FAC0002463B69D31A022B01D9032320E0124BD2
:100FBC001B6803F00073002BF0D118E07B68DB6931
:100FCC00012B01D1012313E00B4B5B68FB60FB6829
:100FDC0003F480327B681B6A9A4206D1FB6803F4E7
:100FEC0070127B685B6A9A4201D0012300E00023F7
:100FFC0018461837BD4680BD0010024000700040F6
:10100C006000424280B584B000AF786039607B6884
:10101C00002B01D10123D0E06A4B1B6803F00703BE
:10102C003A689A4210D9674B1B6823F0070265494E
:10103C003B6813430B60634B1B6803F007033A6870
:10104C009A4201D00123B8E07B681B6803F00203CD
:10105C00002B20D07B681B6803F00403002B05D009
:10106C00594B5B68584A43F4E06353607B681B68D8
:10107C0003F00803002B05D0534B5B68524A43F432
:10108C0060535360504B5B6823F0F0027B689B68A5
:10109C004D4913434B607B681B6803F00103002B25
:1010AC0040D07B685B68012B07D1474B1B6803F46E
:1010BC000033002B15D101237FE07B685B68022B8A
:1010CC0007D1414B1B6803F00073002B09D101239E
:1010DC0073E03D4B1B6803F00203002B01D101238D
:1010EC006BE0394B5B6823F003027B685B68364925
:1010FC0013434B60FFF70CFAF8600AE0FFF708FAAD
:10110C000246FB68D31A41F28832934201D9032379
:10111C0053E02D4B5B6803F00C027B685B689B0013
:10112C009A42EBD1274B1B6803F007033A689A42AB
:10113C0010D2244B1B6823F0070222493B6813434F
:10114C000B60204B1B6803F007033A689A4201D0EE
:10115C00012332E07B681B6803F00403002B08D0EA
:10116C00194B5B6823F4E0627B68DB681649134318
:10117C004B607B681B6803F00803002B09D0124BF3
:10118C005B6823F460527B681B69DB000E491343D8
:10119C004B6000F021F802460B4B5B681B0903F017
:1011AC000F030A49CB5C22FA03F3094A1360094B7B
:1011BC001B681846FFF76AF9002318461037BD461E
:1011CC0080BD00BF00200240001002403813000810
:1011DC00000000200400002080B487B000AF002382
:1011EC00FB600023BB6000237B6100237B6000233A
:1011FC003B611E4B5B68FB60FB6803F00C03042B2C
:10120C0002D0082B03D027E0194B3B6127E0FB6889
:10121C009B0C03F00F03174AD35C7B60FB6803F451
:10122C008033002B10D0114B5B685B0C03F0010377
:10123C00114AD35CBB607B680D4A02FB03F2BB68AE
:10124C00B2FBF3F37B6104E07B680C4A02FB03F313
:10125C007B617B693B6102E0054B3B6100BF3B69F5
:10126C0018461C37BD4680BC704700BF00100240BA
:10127C0000127A00481300085813000800093D00BA
:10128C0080B485B000AF78600A4B1B680A4AA2FB99
:10129C0003235B0A7A6802FB03F3FB6000BFFB6865
:1012AC005A1EFA60002BF9D100BF00BF1437BD469F
:1012BC0080BC704700000020D34D621070B5002632
:1012CC000C4D0D4C641BA410A64209D100F022F861
:1012DC0000260A4D0A4C641BA410A64205D170BD11
:1012EC0055F8043B98470136EEE755F8043B984710
:1012FC000136F2E75C1300085C1300085C1300086D
:10130C006013000803460244934200D1704703F86F
:10131C00011BF9E7F8B500BFF8BC08BC9E46704746
:0C132C00F8B500BFF8BC08BC9E46704736
:10133800000000000000000001020304060708097D
:1013480002030405060708090A0B0C0D0E0F1010FE
:04135800010200008E
:04135C003101000853
:041360000D01000873
:0C13640000127A001000000001000000E0
:0400000508000421CA
:00000001FF
